:0F0877007D527C03ED1D70011C144C70F7DFF1F6
:01088600224F
:060568008B498A4A894B11
:10056E00EF640160030206FF750801F509F50AF54F
:10057E000BF50CF50DF50E7F287878E4F608DFFC08
:10058E007F287850E4F608DFFCAB49AA4AA94B1243
:10059E000382D394C040037F012290000A12039B72
:1005AE00B40104D2BC8002C2BC120382FFE598548F
:1005BE003F4FF598EF64C06008EF64406003020699
:1005CE00839000021204BA7F007E307D2A7C0012D6
:1005DE0004048F4F8E4E8D4D8C4CE4FFFE7D01FC3E
:1005EE00AB4FAA4EA94DA84CC312049640037F02EE
:1005FE0022C3E4954FF54FE4954EF54E7401954D9B
:10060E00F54DE4954CF54CAB49AA4AA94B90000127
:10061E0012039BFB6401702CC28E538EFE5389BF56
:10062E005389CF438E40AF4FAE4EAD4DAC4C780894
:10063E001204A78F8D854F8BC2AB5389BF538FFD8D
:10064E00D28E8065EB64027029538EEF438E015378
:10065E008EF7438E04AF4FAE4EAD4DAC4C780812B4
:10066E0004A78FD6854FD753AFFB538EF7438E100B
:10067E0080377F0222AB49AA4AA94B120382FF7030
:10068E001390000812039BB40105438E20801A5369
:10069E008EDF8015EFB4801190000812039BB40119
:1006AE0005438780800353877FAB49AA4AA94B90A5
:1006BE00000912039BB40104D2AC8002C2AC9000BC
:1006CE000712039BB40104D29C8002C29C90000BC3
:1006DE0012039B54C0FFE5A2543F4FF5A290000CAD
:1006EE0012039BB4010543971080035397EF7F00CD
:0306FE00227F0355
:0107010022D5
:10085A007478250AF8A607050AE50AC3942840030E
:0D086A00E4F50AE50B7005750B01D299222B
:10000E00120382FF600C12085A740129F9E43AFABD
:03001E0080EE224F
:03002300020702CF
:10070200C0E0C0D075D000C000C00730981DC298AC
:10071200E50E7017E50CC394284003750C00AF0C6E
:10072200050C74502FF8A699750D05309921C299C0
:10073200E509650A601674782509F8E6F599050950
:10074200E509C3942840087509008003750B00D0A1
:0807520007D000D0D0D0E03246
:1007E900535443313546324B3630533220554152FA
:1007F900543120546573742050726772616D6D6550
:09080900210D0A0025640A0D000E
:10075A00753C40753D027541007540C2753F017593
:10076A003E00754301E4F544754501F546F547F544
:10077A0048FB7A00793C7F011205687BFF7A07798A
:04078A00E902000E72
:10083900E4F50FF510F511F512F513F514758902A4
:10084900758C06758A06D288D2AFD2A9D2A8D28C65
:01085900227C
:0300030002088769
:0D088700C0E00510E5107002050FD0E03252
:03000B000207BE2B
:1007BE00C0E0C0D00512E51270020511B4A017E515
:1007CE0011B40F12850F13851014751100751200D8
:0B07DE00750F00751000D0D0D0E03285
:10078E0012075AD2AFE4F594F593120839753FFF6C
:10079E0075400875410D8513428514437B007A0020
:1007AE0079231200827B007A00792312000E80DDFD
:030000000208945F
:0C089400787FE4F6D8FD75819F02078E86
:10038200BB010689828A83E0225002E722BBFE0279
:09039200E32289828A83E49322AC
:10039B00BB010CE58229F582E5833AF583E0225017
:1003AB0006E92582F8E622BBFE06E92582F8E22261
:0D03BB00E58229F582E5833AF583E493227B
:1003C80075F008758200EF2FFFEE33FECD33CDCCEC
:1003D80033CCC58233C5829BED9AEC99E58298406F
:1003E8000CF582EE9BFEED9AFDEC99FC0FD5F0D64C
:1003F800E4CEFBE4CDFAE4CCF9A88222B800C1B976
:100408000059BA002DEC8BF084CFCECDFCE5F0CBB3
:10041800F97818EF2FFFEE33FEED33FDEC33FCEBEC
:1004280033FB10D703994004EB99FB0FD8E5E4F9A7
:10043800FA227818EF2FFFEE33FEED33FDEC33FC94
:10044800C933C910D7059BE99A4007EC9BFCE99A88
:10045800F90FD8E0E4C9FAE4CCFB2275F010EF2FCD
:10046800FFEE33FEED33FDCC33CCC833C810D707CD
:100478009BEC9AE899400AED9BFDEC9AFCE899F808
:0E0488000FD5F0DAE4CDFBE4CCFAE4C8F9229B
:10049600EB9FF5F0EA9E42F0E99D42F0E89C45F0BC
:0104A6002233
:1004A700E8600FECC313FCED13FDEE13FEEF13FF33
:0304B700D8F12257
:1004BA00BB010DE58229F582E5833AF58302050938
:1004CA005007E92582F80204FCBBFE07E92582F8F9
:1004DA00020515E58229F582E5833AF583020522AC
:10002600E54B243FF8E6054B22783C300702783F43
:10003600E475F0011205320203822000EB7F2ED216
:10004600008018EF540F2490D43440D4FF30040BB2
:10005600EF24BFB41A0050032461FFE54C6002157B
:100066004C054FE54F7002054E30070D783CE475A0
:10007600F001120532EF0204EA0208127403D207F5
:100086008003E4C207F54B8B3C8A3D893EE4F54C80
:10009600F54EF54FE54C60077F2012006180F5753F
:1000A6004DFFC201C200C202C203C205C206C20897
:1000B60012002FFF700D3007057F00120072AF4F40
:1000C600AE4E22B4255FC2D5C20412002FFF24D043
:1000D600B40A00501A75F00A784C30D50508B6FFF8
:1000E6000106C6A426F620D5047002D20380D924C0
:1000F600CFB41A00EF5004C2E5D204020272D20154
:1001060080C6D20080C0D20280BCD2D580BAD205C9
:1001160080B47F201200612002077401B54C0040B4
:10012600F1120026FF12006102009AD208D2068060
:1001360095120026FB120026FA120026F94A4B7089
:100146000679437A037BFF20022EE54C602A7E0067
:100156008E8275830012039B60060EEE654D70F06D
:10016600C2D5EBC0E0EAC0E0E9C0E0EE1202B9D0C9
:10017600E0F9D0E0FAD0E0FB120382FF60AAEBC000
:10018600E0EAC0E0E9C0E0120061D0E02401F9D065
:10019600E03400FAD0E0FBE54D0460DCD54DD980B3
:1001A600877BFF7A0279B5D202809C79108002792A
:1001B60008C206C2088008D2D5790A8004790AC224
:1001C600D5E54D047002F54DE4FAFDFEFF1200265A
:1001D600FC7B08200113120026FD7B1030000A125A
:1001E6000026FE120026FF7B20EC3382D592D550E6
:1001F60013C3E43000069FFFE49EFEE42001039D46
:10020600FDE49CFCE4CBF8C201EC700CCFCECDCC67
:10021600E824F8F870F38017C3EF33FFEE33FEEDF2
:1002260033FDEC33FCEB33FB994002FB0FD8E9EBD3
:10023600300105F8D0E0C448B201C0E00AEC4D4EEA
:100246004F78207B0070C2EAB54D0040BCC0E0127A
:1002560002BBD0F0D0E0200104C4C0E0C4B201C0AB
:10026600F012004AD0F0D5F0EB02009A12054201D6
:10027600375301B15801084C01044201B54F01BD85
:0F0286004401BD49011D4301C35501A74601A70E
:100295004501A747036350010C2D01102E01332B97
:1002A500011423013120034C2A00CC480000012B06
:1002B5003F3F3F00790AA2D5200314300509B91044
:1002C500020404B9080104A2D52006025001042045
:1002D50002689202B54C005034C0E07F203003190B
:1002E5007F30A20272067205500F120312C202C2BB
:1002F50006C205C2087F30800F300503E9C0E01251
:100305000061300503D0E0F9D0E0B54CCC300517DD
:100315007F30B9100C1200617F583004077F788058
:1003250003B908031200613002057F2D0200617FC9
:10033500202008F87F2B2006F322920280CF286E1A
:10034500756C6C2900D2011200263001F8C20178C3
:100355004C30D50108F60200CC2D50434958120007
:10036500262403B405004001E490035E9312005275
:0D037500743A120052D203754C040201B11B
:1004EA00BB010689828A83F0225002F722BBFE01F1
:0204FA00F322EB
:0D04FC00E6FB08E6F908E6FA08E6CBF82270
:0C050900E0F8A3E0F9A3E0FAA3E0FB2275
:0D051500E2FB08E2F908E2FA08E2CBF82266
:10052200E493F8740193F9740293FA740393FB222F
:10053200FAE6FB0808E6F925F0F618E6CA3AF622CA
:10054200D083D082F8E4937012740193700DA3A348
:1005520093F8740193F5828883E47374029368605C
:06056200EFA3A3A380DF5C
:10081200EFB40A07740D12081D740A309811A899D2
:10082200B8130CC2983098FDA899C298B811F63046
:0708320099FDC299F599221E
:00000001FF
